{
  "_format": "hh-sol-artifact-1",
  "contractName": "GearFight",
  "sourceName": "contracts/GearFight.sol",
  "abi": [
    {
      "inputs": [],
      "stateMutability": "nonpayable",
      "type": "constructor"
    },
    {
      "anonymous": false,
      "inputs": [
        {
          "indexed": true,
          "internalType": "address",
          "name": "owner",
          "type": "address"
        },
        {
          "indexed": true,
          "internalType": "address",
          "name": "approved",
          "type": "address"
        },
        {
          "indexed": true,
          "internalType": "uint256",
          "name": "tokenId",
          "type": "uint256"
        }
      ],
      "name": "Approval",
      "type": "event"
    },
    {
      "anonymous": false,
      "inputs": [
        {
          "indexed": true,
          "internalType": "address",
          "name": "owner",
          "type": "address"
        },
        {
          "indexed": true,
          "internalType": "address",
          "name": "operator",
          "type": "address"
        },
        {
          "indexed": false,
          "internalType": "bool",
          "name": "approved",
          "type": "bool"
        }
      ],
      "name": "ApprovalForAll",
      "type": "event"
    },
    {
      "anonymous": false,
      "inputs": [
        {
          "indexed": false,
          "internalType": "uint256",
          "name": "_fromTokenId",
          "type": "uint256"
        },
        {
          "indexed": false,
          "internalType": "uint256",
          "name": "_toTokenId",
          "type": "uint256"
        }
      ],
      "name": "BatchMetadataUpdate",
      "type": "event"
    },
    {
      "anonymous": false,
      "inputs": [
        {
          "indexed": false,
          "internalType": "uint256",
          "name": "_tokenId",
          "type": "uint256"
        }
      ],
      "name": "MetadataUpdate",
      "type": "event"
    },
    {
      "anonymous": false,
      "inputs": [
        {
          "indexed": true,
          "internalType": "address",
          "name": "previousOwner",
          "type": "address"
        },
        {
          "indexed": true,
          "internalType": "address",
          "name": "newOwner",
          "type": "address"
        }
      ],
      "name": "OwnershipTransferred",
      "type": "event"
    },
    {
      "anonymous": false,
      "inputs": [
        {
          "indexed": true,
          "internalType": "address",
          "name": "from",
          "type": "address"
        },
        {
          "indexed": true,
          "internalType": "address",
          "name": "to",
          "type": "address"
        },
        {
          "indexed": true,
          "internalType": "uint256",
          "name": "tokenId",
          "type": "uint256"
        }
      ],
      "name": "Transfer",
      "type": "event"
    },
    {
      "inputs": [
        {
          "internalType": "address",
          "name": "to",
          "type": "address"
        },
        {
          "internalType": "uint256",
          "name": "tokenId",
          "type": "uint256"
        }
      ],
      "name": "approve",
      "outputs": [],
      "stateMutability": "nonpayable",
      "type": "function"
    },
    {
      "inputs": [
        {
          "internalType": "address",
          "name": "owner",
          "type": "address"
        }
      ],
      "name": "balanceOf",
      "outputs": [
        {
          "internalType": "uint256",
          "name": "",
          "type": "uint256"
        }
      ],
      "stateMutability": "view",
      "type": "function"
    },
    {
      "inputs": [
        {
          "internalType": "uint256",
          "name": "tokenId",
          "type": "uint256"
        },
        {
          "internalType": "uint16",
          "name": "_xp",
          "type": "uint16"
        }
      ],
      "name": "gainXP",
      "outputs": [],
      "stateMutability": "nonpayable",
      "type": "function"
    },
    {
      "inputs": [
        {
          "internalType": "uint256",
          "name": "tokenId",
          "type": "uint256"
        }
      ],
      "name": "getApproved",
      "outputs": [
        {
          "internalType": "address",
          "name": "",
          "type": "address"
        }
      ],
      "stateMutability": "view",
      "type": "function"
    },
    {
      "inputs": [
        {
          "internalType": "address",
          "name": "owner",
          "type": "address"
        },
        {
          "internalType": "address",
          "name": "operator",
          "type": "address"
        }
      ],
      "name": "isApprovedForAll",
      "outputs": [
        {
          "internalType": "bool",
          "name": "",
          "type": "bool"
        }
      ],
      "stateMutability": "view",
      "type": "function"
    },
    {
      "inputs": [
        {
          "internalType": "uint256",
          "name": "tokenId",
          "type": "uint256"
        },
        {
          "internalType": "uint16",
          "name": "newLevel",
          "type": "uint16"
        },
        {
          "components": [
            {
              "internalType": "uint16",
              "name": "health",
              "type": "uint16"
            },
            {
              "internalType": "uint16",
              "name": "speed",
              "type": "uint16"
            },
            {
              "internalType": "uint16",
              "name": "mind",
              "type": "uint16"
            },
            {
              "components": [
                {
                  "internalType": "uint16",
                  "name": "sharpDamage",
                  "type": "uint16"
                },
                {
                  "internalType": "uint16",
                  "name": "bluntDamage",
                  "type": "uint16"
                },
                {
                  "internalType": "uint16",
                  "name": "burnDamage",
                  "type": "uint16"
                },
                {
                  "internalType": "uint16",
                  "name": "pierce",
                  "type": "uint16"
                },
                {
                  "internalType": "uint16",
                  "name": "lethality",
                  "type": "uint16"
                }
              ],
              "internalType": "struct GearFactory.OffensiveStats",
              "name": "offensiveStats",
              "type": "tuple"
            },
            {
              "components": [
                {
                  "internalType": "uint16",
                  "name": "sharpResistance",
                  "type": "uint16"
                },
                {
                  "internalType": "uint16",
                  "name": "bluntResistance",
                  "type": "uint16"
                },
                {
                  "internalType": "uint16",
                  "name": "burnResistance",
                  "type": "uint16"
                },
                {
                  "internalType": "uint16",
                  "name": "guard",
                  "type": "uint16"
                }
              ],
              "internalType": "struct GearFactory.DefensiveStats",
              "name": "defensiveStats",
              "type": "tuple"
            },
            {
              "internalType": "uint16",
              "name": "handling",
              "type": "uint16"
            }
          ],
          "internalType": "struct GearFactory.WeaponStats",
          "name": "upgradeStats",
          "type": "tuple"
        },
        {
          "internalType": "string[]",
          "name": "newAbilities",
          "type": "string[]"
        },
        {
          "internalType": "uint16",
          "name": "xpLeft",
          "type": "uint16"
        }
      ],
      "name": "levelUp",
      "outputs": [],
      "stateMutability": "nonpayable",
      "type": "function"
    },
    {
      "inputs": [],
      "name": "maxWeaponsRequest",
      "outputs": [
        {
          "internalType": "uint256",
          "name": "",
          "type": "uint256"
        }
      ],
      "stateMutability": "view",
      "type": "function"
    },
    {
      "inputs": [],
      "name": "name",
      "outputs": [
        {
          "internalType": "string",
          "name": "",
          "type": "string"
        }
      ],
      "stateMutability": "view",
      "type": "function"
    },
    {
      "inputs": [],
      "name": "owner",
      "outputs": [
        {
          "internalType": "address",
          "name": "",
          "type": "address"
        }
      ],
      "stateMutability": "view",
      "type": "function"
    },
    {
      "inputs": [
        {
          "internalType": "uint256",
          "name": "tokenId",
          "type": "uint256"
        }
      ],
      "name": "ownerOf",
      "outputs": [
        {
          "internalType": "address",
          "name": "",
          "type": "address"
        }
      ],
      "stateMutability": "view",
      "type": "function"
    },
    {
      "inputs": [],
      "name": "renounceOwnership",
      "outputs": [],
      "stateMutability": "nonpayable",
      "type": "function"
    },
    {
      "inputs": [
        {
          "components": [
            {
              "internalType": "string",
              "name": "name",
              "type": "string"
            },
            {
              "internalType": "string",
              "name": "description",
              "type": "string"
            },
            {
              "internalType": "string",
              "name": "image",
              "type": "string"
            },
            {
              "internalType": "uint16",
              "name": "level",
              "type": "uint16"
            },
            {
              "internalType": "uint16",
              "name": "stage",
              "type": "uint16"
            },
            {
              "components": [
                {
                  "internalType": "uint16",
                  "name": "health",
                  "type": "uint16"
                },
                {
                  "internalType": "uint16",
                  "name": "speed",
                  "type": "uint16"
                },
                {
                  "internalType": "uint16",
                  "name": "mind",
                  "type": "uint16"
                },
                {
                  "components": [
                    {
                      "internalType": "uint16",
                      "name": "sharpDamage",
                      "type": "uint16"
                    },
                    {
                      "internalType": "uint16",
                      "name": "bluntDamage",
                      "type": "uint16"
                    },
                    {
                      "internalType": "uint16",
                      "name": "burnDamage",
                      "type": "uint16"
                    },
                    {
                      "internalType": "uint16",
                      "name": "pierce",
                      "type": "uint16"
                    },
                    {
                      "internalType": "uint16",
                      "name": "lethality",
                      "type": "uint16"
                    }
                  ],
                  "internalType": "struct GearFactory.OffensiveStats",
                  "name": "offensiveStats",
                  "type": "tuple"
                },
                {
                  "components": [
                    {
                      "internalType": "uint16",
                      "name": "sharpResistance",
                      "type": "uint16"
                    },
                    {
                      "internalType": "uint16",
                      "name": "bluntResistance",
                      "type": "uint16"
                    },
                    {
                      "internalType": "uint16",
                      "name": "burnResistance",
                      "type": "uint16"
                    },
                    {
                      "internalType": "uint16",
                      "name": "guard",
                      "type": "uint16"
                    }
                  ],
                  "internalType": "struct GearFactory.DefensiveStats",
                  "name": "defensiveStats",
                  "type": "tuple"
                },
                {
                  "internalType": "uint16",
                  "name": "handling",
                  "type": "uint16"
                }
              ],
              "internalType": "struct GearFactory.WeaponStats",
              "name": "weaponStats",
              "type": "tuple"
            },
            {
              "internalType": "uint16",
              "name": "xp",
              "type": "uint16"
            },
            {
              "internalType": "string",
              "name": "identity",
              "type": "string"
            },
            {
              "internalType": "string[]",
              "name": "abilities",
              "type": "string[]"
            }
          ],
          "internalType": "struct GearFactory.Weapon",
          "name": "newWeapon",
          "type": "tuple"
        }
      ],
      "name": "requestWeapon",
      "outputs": [],
      "stateMutability": "nonpayable",
      "type": "function"
    },
    {
      "inputs": [
        {
          "internalType": "address",
          "name": "from",
          "type": "address"
        },
        {
          "internalType": "address",
          "name": "to",
          "type": "address"
        },
        {
          "internalType": "uint256",
          "name": "tokenId",
          "type": "uint256"
        }
      ],
      "name": "safeTransferFrom",
      "outputs": [],
      "stateMutability": "nonpayable",
      "type": "function"
    },
    {
      "inputs": [
        {
          "internalType": "address",
          "name": "from",
          "type": "address"
        },
        {
          "internalType": "address",
          "name": "to",
          "type": "address"
        },
        {
          "internalType": "uint256",
          "name": "tokenId",
          "type": "uint256"
        },
        {
          "internalType": "bytes",
          "name": "data",
          "type": "bytes"
        }
      ],
      "name": "safeTransferFrom",
      "outputs": [],
      "stateMutability": "nonpayable",
      "type": "function"
    },
    {
      "inputs": [
        {
          "internalType": "address",
          "name": "operator",
          "type": "address"
        },
        {
          "internalType": "bool",
          "name": "approved",
          "type": "bool"
        }
      ],
      "name": "setApprovalForAll",
      "outputs": [],
      "stateMutability": "nonpayable",
      "type": "function"
    },
    {
      "inputs": [
        {
          "internalType": "uint256",
          "name": "_maxWeaponsRequest",
          "type": "uint256"
        }
      ],
      "name": "setWeaponsRequest",
      "outputs": [],
      "stateMutability": "nonpayable",
      "type": "function"
    },
    {
      "inputs": [
        {
          "internalType": "bytes4",
          "name": "interfaceId",
          "type": "bytes4"
        }
      ],
      "name": "supportsInterface",
      "outputs": [
        {
          "internalType": "bool",
          "name": "",
          "type": "bool"
        }
      ],
      "stateMutability": "view",
      "type": "function"
    },
    {
      "inputs": [],
      "name": "symbol",
      "outputs": [
        {
          "internalType": "string",
          "name": "",
          "type": "string"
        }
      ],
      "stateMutability": "view",
      "type": "function"
    },
    {
      "inputs": [
        {
          "internalType": "uint256",
          "name": "tokenId",
          "type": "uint256"
        }
      ],
      "name": "tokenURI",
      "outputs": [
        {
          "internalType": "string",
          "name": "",
          "type": "string"
        }
      ],
      "stateMutability": "view",
      "type": "function"
    },
    {
      "inputs": [
        {
          "internalType": "address",
          "name": "from",
          "type": "address"
        },
        {
          "internalType": "address",
          "name": "to",
          "type": "address"
        },
        {
          "internalType": "uint256",
          "name": "tokenId",
          "type": "uint256"
        }
      ],
      "name": "transferFrom",
      "outputs": [],
      "stateMutability": "nonpayable",
      "type": "function"
    },
    {
      "inputs": [
        {
          "internalType": "address",
          "name": "newOwner",
          "type": "address"
        }
      ],
      "name": "transferOwnership",
      "outputs": [],
      "stateMutability": "nonpayable",
      "type": "function"
    },
    {
      "inputs": [
        {
          "internalType": "uint256",
          "name": "",
          "type": "uint256"
        }
      ],
      "name": "weapons",
      "outputs": [
        {
          "internalType": "string",
          "name": "name",
          "type": "string"
        },
        {
          "internalType": "string",
          "name": "description",
          "type": "string"
        },
        {
          "internalType": "string",
          "name": "image",
          "type": "string"
        },
        {
          "internalType": "uint16",
          "name": "level",
          "type": "uint16"
        },
        {
          "internalType": "uint16",
          "name": "stage",
          "type": "uint16"
        },
        {
          "components": [
            {
              "internalType": "uint16",
              "name": "health",
              "type": "uint16"
            },
            {
              "internalType": "uint16",
              "name": "speed",
              "type": "uint16"
            },
            {
              "internalType": "uint16",
              "name": "mind",
              "type": "uint16"
            },
            {
              "components": [
                {
                  "internalType": "uint16",
                  "name": "sharpDamage",
                  "type": "uint16"
                },
                {
                  "internalType": "uint16",
                  "name": "bluntDamage",
                  "type": "uint16"
                },
                {
                  "internalType": "uint16",
                  "name": "burnDamage",
                  "type": "uint16"
                },
                {
                  "internalType": "uint16",
                  "name": "pierce",
                  "type": "uint16"
                },
                {
                  "internalType": "uint16",
                  "name": "lethality",
                  "type": "uint16"
                }
              ],
              "internalType": "struct GearFactory.OffensiveStats",
              "name": "offensiveStats",
              "type": "tuple"
            },
            {
              "components": [
                {
                  "internalType": "uint16",
                  "name": "sharpResistance",
                  "type": "uint16"
                },
                {
                  "internalType": "uint16",
                  "name": "bluntResistance",
                  "type": "uint16"
                },
                {
                  "internalType": "uint16",
                  "name": "burnResistance",
                  "type": "uint16"
                },
                {
                  "internalType": "uint16",
                  "name": "guard",
                  "type": "uint16"
                }
              ],
              "internalType": "struct GearFactory.DefensiveStats",
              "name": "defensiveStats",
              "type": "tuple"
            },
            {
              "internalType": "uint16",
              "name": "handling",
              "type": "uint16"
            }
          ],
          "internalType": "struct GearFactory.WeaponStats",
          "name": "weaponStats",
          "type": "tuple"
        },
        {
          "internalType": "uint16",
          "name": "xp",
          "type": "uint16"
        },
        {
          "internalType": "string",
          "name": "identity",
          "type": "string"
        }
      ],
      "stateMutability": "view",
      "type": "function"
    },
    {
      "inputs": [
        {
          "internalType": "address",
          "name": "",
          "type": "address"
        }
      ],
      "name": "weaponsRequested",
      "outputs": [
        {
          "internalType": "uint256",
          "name": "",
          "type": "uint256"
        }
      ],
      "stateMutability": "view",
      "type": "function"
    }
  ],
  "bytecode": "0x60806040523480156200001157600080fd5b506040518060400160405280600981526020017f47656172466967687400000000000000000000000000000000000000000000008152506040518060400160405280600281526020017f4746000000000000000000000000000000000000000000000000000000000000815250816000908051906020019062000096929190620001ae565b508060019080519060200190620000af929190620001ae565b505050620000d2620000c6620000e060201b60201c565b620000e860201b60201c565b6001600a81905550620002c3565b600033905090565b6000600760009054906101000a900473ffffffffffffffffffffffffffffffffffffffff16905081600760006101000a81548173ffffffffffffffffffffffffffffffffffffffff021916908373ffffffffffffffffffffffffffffffffffffffff1602179055508173ffffffffffffffffffffffffffffffffffffffff168173ffffffffffffffffffffffffffffffffffffffff167f8be0079c531659141344cd1fd0a4f28419497f9722a3daafe3b4186f6b6457e060405160405180910390a35050565b828054620001bc906200028d565b90600052602060002090601f016020900481019282620001e057600085556200022c565b82601f10620001fb57805160ff19168380011785556200022c565b828001600101855582156200022c579182015b828111156200022b5782518255916020019190600101906200020e565b5b5090506200023b91906200023f565b5090565b5b808211156200025a57600081600090555060010162000240565b5090565b7f4e487b7100000000000000000000000000000000000000000000000000000000600052602260045260246000fd5b60006002820490506001821680620002a657607f821691505b60208210811415620002bd57620002bc6200025e565b5b50919050565b61556b80620002d36000396000f3fe608060405234801561001057600080fd5b506004361061014d5760003560e01c80637c8e6006116100c3578063b377501c1161007c578063b377501c146103a1578063b53b9dde146103bf578063b88d4fde146103db578063c87b56dd146103f7578063e985e9c514610427578063f2fde38b146104575761014d565b80637c8e6006146102e15780638bd20d08146102fd5780638da5cb5b1461032d57806395d89b411461034b578063a22cb46514610369578063abbf3a11146103855761014d565b806323b872dd1161011557806323b872dd1461020857806342842e0e14610224578063555e73c8146102405780636352211e1461027757806370a08231146102a7578063715018a6146102d75761014d565b806301ffc9a71461015257806306fdde0314610182578063081812fc146101a0578063095ea7b3146101d05780631e50a63f146101ec575b600080fd5b61016c600480360381019061016791906135d0565b610473565b6040516101799190613618565b60405180910390f35b61018a6104d4565b60405161019791906136cc565b60405180910390f35b6101ba60048036038101906101b59190613724565b610566565b6040516101c79190613792565b60405180910390f35b6101ea60048036038101906101e591906137d9565b6105ac565b005b61020660048036038101906102019190613c1f565b6106c4565b005b610222600480360381019061021d9190613cb9565b610d9a565b005b61023e60048036038101906102399190613cb9565b610dfa565b005b61025a60048036038101906102559190613724565b610e1a565b60405161026e989796959493929190613e65565b60405180910390f35b610291600480360381019061028c9190613724565b61127e565b60405161029e9190613792565b60405180910390f35b6102c160048036038101906102bc9190613f01565b611305565b6040516102ce9190613f3d565b60405180910390f35b6102df6113bd565b005b6102fb60048036038101906102f691906140c6565b6113d1565b005b61031760048036038101906103129190613f01565b611868565b6040516103249190613f3d565b60405180910390f35b610335611880565b6040516103429190613792565b60405180910390f35b6103536118aa565b60405161036091906136cc565b60405180910390f35b610383600480360381019061037e919061413b565b61193c565b005b61039f600480360381019061039a9190613724565b611952565b005b6103a9611964565b6040516103b69190613f3d565b60405180910390f35b6103d960048036038101906103d4919061417b565b61196a565b005b6103f560048036038101906103f0919061425c565b612037565b005b610411600480360381019061040c9190613724565b612099565b60405161041e91906136cc565b60405180910390f35b610441600480360381019061043c91906142df565b6121ac565b60405161044e9190613618565b60405180910390f35b610471600480360381019061046c9190613f01565b612240565b005b6000634906490660e01b7bffffffffffffffffffffffffffffffffffffffffffffffffffffffff1916827bffffffffffffffffffffffffffffffffffffffffffffffffffffffff191614806104cd57506104cc826122c4565b5b9050919050565b6060600080546104e39061434e565b80601f016020809104026020016040519081016040528092919081815260200182805461050f9061434e565b801561055c5780601f106105315761010080835404028352916020019161055c565b820191906000526020600020905b81548152906001019060200180831161053f57829003601f168201915b5050505050905090565b6000610571826123a6565b6004600083815260200190815260200160002060009054906101000a900473ffffffffffffffffffffffffffffffffffffffff169050919050565b60006105b78261127e565b90508073ffffffffffffffffffffffffffffffffffffffff168373ffffffffffffffffffffffffffffffffffffffff161415610628576040517f08c379a000000000000000000000000000000000000000000000000000000000815260040161061f906143f2565b60405180910390fd5b8073ffffffffffffffffffffffffffffffffffffffff166106476123f1565b73ffffffffffffffffffffffffffffffffffffffff1614806106765750610675816106706123f1565b6121ac565b5b6106b5576040517f08c379a00000000000000000000000000000000000000000000000000000000081526004016106ac90614484565b60405180910390fd5b6106bf83836123f9565b505050565b60096000868152602001908152602001600020604051806101200160405290816000820180546106f39061434e565b80601f016020809104026020016040519081016040528092919081815260200182805461071f9061434e565b801561076c5780601f106107415761010080835404028352916020019161076c565b820191906000526020600020905b81548152906001019060200180831161074f57829003601f168201915b505050505081526020016001820180546107859061434e565b80601f01602080910402602001604051908101604052809291908181526020018280546107b19061434e565b80156107fe5780601f106107d3576101008083540402835291602001916107fe565b820191906000526020600020905b8154815290600101906020018083116107e157829003601f168201915b505050505081526020016002820180546108179061434e565b80601f01602080910402602001604051908101604052809291908181526020018280546108439061434e565b80156108905780601f1061086557610100808354040283529160200191610890565b820191906000526020600020905b81548152906001019060200180831161087357829003601f168201915b505050505081526020016003820160009054906101000a900461ffff1661ffff1661ffff1681526020016003820160029054906101000a900461ffff1661ffff1661ffff168152602001600482016040518060c00160405290816000820160009054906101000a900461ffff1661ffff1661ffff1681526020016000820160029054906101000a900461ffff1661ffff1661ffff1681526020016000820160049054906101000a900461ffff1661ffff1661ffff168152602001600182016040518060a00160405290816000820160009054906101000a900461ffff1661ffff1661ffff1681526020016000820160029054906101000a900461ffff1661ffff1661ffff1681526020016000820160049054906101000a900461ffff1661ffff1661ffff1681526020016000820160069054906101000a900461ffff1661ffff1661ffff1681526020016000820160089054906101000a900461ffff1661ffff1661ffff16815250508152602001600282016040518060800160405290816000820160009054906101000a900461ffff1661ffff1661ffff1681526020016000820160029054906101000a900461ffff1661ffff1661ffff1681526020016000820160049054906101000a900461ffff1661ffff1661ffff1681526020016000820160069054906101000a900461ffff1661ffff1661ffff168152505081526020016003820160009054906101000a900461ffff1661ffff1661ffff168152505081526020016008820160009054906101000a900461ffff1661ffff1661ffff168152602001600982018054610ae59061434e565b80601f0160208091040260200160405190810160405280929190818152602001828054610b119061434e565b8015610b5e5780601f10610b3357610100808354040283529160200191610b5e565b820191906000526020600020905b815481529060010190602001808311610b4157829003601f168201915b50505050508152602001600a8201805480602002602001604051908101604052809291908181526020016000905b82821015610c38578382906000526020600020018054610bab9061434e565b80601f0160208091040260200160405190810160405280929190818152602001828054610bd79061434e565b8015610c245780601f10610bf957610100808354040283529160200191610c24565b820191906000526020600020905b815481529060010190602001808311610c0757829003601f168201915b505050505081526020019060010190610b8c565b505050508152505060008160e00151511415610c5357600080fd5b60008160000151511415610c6657600080fd5b60008160400151511415610c7957600080fd5b73__$f1f2e15f48fa7f8df27c8f35a0c4c8a415$__635921abd160096000898152602001908152602001600020878787876040518663ffffffff1660e01b8152600401610cca959493929190614710565b60006040518083038186803b158015610ce257600080fd5b505af4158015610cf6573d6000803e3d6000fd5b50505050610d928673__$f1f2e15f48fa7f8df27c8f35a0c4c8a415$__63b2958b14600960008b81526020019081526020016000206040518263ffffffff1660e01b8152600401610d479190614c20565b600060405180830381865af4158015610d64573d6000803e3d6000fd5b505050506040513d6000823e3d601f19601f82011682018060405250810190610d8d9190614cb2565b6124b2565b505050505050565b610dab610da56123f1565b8261255d565b610dea576040517f08c379a0000000000000000000000000000000000000000000000000000000008152600401610de190614d6d565b60405180910390fd5b610df58383836125f2565b505050565b610e1583838360405180602001604052806000815250612037565b505050565b6009602052806000526040600020600091509050806000018054610e3d9061434e565b80601f0160208091040260200160405190810160405280929190818152602001828054610e699061434e565b8015610eb65780601f10610e8b57610100808354040283529160200191610eb6565b820191906000526020600020905b815481529060010190602001808311610e9957829003601f168201915b505050505090806001018054610ecb9061434e565b80601f0160208091040260200160405190810160405280929190818152602001828054610ef79061434e565b8015610f445780601f10610f1957610100808354040283529160200191610f44565b820191906000526020600020905b815481529060010190602001808311610f2757829003601f168201915b505050505090806002018054610f599061434e565b80601f0160208091040260200160405190810160405280929190818152602001828054610f859061434e565b8015610fd25780601f10610fa757610100808354040283529160200191610fd2565b820191906000526020600020905b815481529060010190602001808311610fb557829003601f168201915b5050505050908060030160009054906101000a900461ffff16908060030160029054906101000a900461ffff1690806004016040518060c00160405290816000820160009054906101000a900461ffff1661ffff1661ffff1681526020016000820160029054906101000a900461ffff1661ffff1661ffff1681526020016000820160049054906101000a900461ffff1661ffff1661ffff168152602001600182016040518060a00160405290816000820160009054906101000a900461ffff1661ffff1661ffff1681526020016000820160029054906101000a900461ffff1661ffff1661ffff1681526020016000820160049054906101000a900461ffff1661ffff1661ffff1681526020016000820160069054906101000a900461ffff1661ffff1661ffff1681526020016000820160089054906101000a900461ffff1661ffff1661ffff16815250508152602001600282016040518060800160405290816000820160009054906101000a900461ffff1661ffff1661ffff1681526020016000820160029054906101000a900461ffff1661ffff1661ffff1681526020016000820160049054906101000a900461ffff1661ffff1661ffff1681526020016000820160069054906101000a900461ffff1661ffff1661ffff168152505081526020016003820160009054906101000a900461ffff1661ffff1661ffff1681525050908060080160009054906101000a900461ffff16908060090180546111fb9061434e565b80601f01602080910402602001604051908101604052809291908181526020018280546112279061434e565b80156112745780601f1061124957610100808354040283529160200191611274565b820191906000526020600020905b81548152906001019060200180831161125757829003601f168201915b5050505050905088565b60008061128a836128ec565b9050600073ffffffffffffffffffffffffffffffffffffffff168173ffffffffffffffffffffffffffffffffffffffff1614156112fc576040517f08c379a00000000000000000000000000000000000000000000000000000000081526004016112f390614dd9565b60405180910390fd5b80915050919050565b60008073ffffffffffffffffffffffffffffffffffffffff168273ffffffffffffffffffffffffffffffffffffffff161415611376576040517f08c379a000000000000000000000000000000000000000000000000000000000815260040161136d90614e6b565b60405180910390fd5b600360008373ffffffffffffffffffffffffffffffffffffffff1673ffffffffffffffffffffffffffffffffffffffff168152602001908152602001600020549050919050565b6113c5612929565b6113cf60006129a7565b565b8060008160e001515114156113e557600080fd5b600081600001515114156113f857600080fd5b6000816040015151141561140b57600080fd5b600a54600b60003373ffffffffffffffffffffffffffffffffffffffff1673ffffffffffffffffffffffffffffffffffffffff168152602001908152602001600020541061145857600080fd5b60006114646008612a6d565b90506114706008612a7b565b61147a3382612a91565b826009600083815260200190815260200160002060008201518160000190805190602001906114aa9291906133fd565b5060208201518160010190805190602001906114c79291906133fd565b5060408201518160020190805190602001906114e49291906133fd565b5060608201518160030160006101000a81548161ffff021916908361ffff16021790555060808201518160030160026101000a81548161ffff021916908361ffff16021790555060a08201518160040160008201518160000160006101000a81548161ffff021916908361ffff16021790555060208201518160000160026101000a81548161ffff021916908361ffff16021790555060408201518160000160046101000a81548161ffff021916908361ffff16021790555060608201518160010160008201518160000160006101000a81548161ffff021916908361ffff16021790555060208201518160000160026101000a81548161ffff021916908361ffff16021790555060408201518160000160046101000a81548161ffff021916908361ffff16021790555060608201518160000160066101000a81548161ffff021916908361ffff16021790555060808201518160000160086101000a81548161ffff021916908361ffff160217905550505060808201518160020160008201518160000160006101000a81548161ffff021916908361ffff16021790555060208201518160000160026101000a81548161ffff021916908361ffff16021790555060408201518160000160046101000a81548161ffff021916908361ffff16021790555060608201518160000160066101000a81548161ffff021916908361ffff160217905550505060a08201518160030160006101000a81548161ffff021916908361ffff160217905550505060c08201518160080160006101000a81548161ffff021916908361ffff16021790555060e08201518160090190805190602001906117529291906133fd565b5061010082015181600a019080519060200190611770929190613483565b5090505061180c8173__$f1f2e15f48fa7f8df27c8f35a0c4c8a415$__63b2958b14600960008681526020019081526020016000206040518263ffffffff1660e01b81526004016117c19190614c20565b600060405180830381865af41580156117de573d6000803e3d6000fd5b505050506040513d6000823e3d601f19601f820116820180604052508101906118079190614cb2565b6124b2565b6001600b60003373ffffffffffffffffffffffffffffffffffffffff1673ffffffffffffffffffffffffffffffffffffffff168152602001908152602001600020600082825461185c9190614eba565b92505081905550505050565b600b6020528060005260406000206000915090505481565b6000600760009054906101000a900473ffffffffffffffffffffffffffffffffffffffff16905090565b6060600180546118b99061434e565b80601f01602080910402602001604051908101604052809291908181526020018280546118e59061434e565b80156119325780601f1061190757610100808354040283529160200191611932565b820191906000526020600020905b81548152906001019060200180831161191557829003601f168201915b5050505050905090565b61194e6119476123f1565b8383612aaf565b5050565b61195a612929565b80600a8190555050565b600a5481565b60096000838152602001908152602001600020604051806101200160405290816000820180546119999061434e565b80601f01602080910402602001604051908101604052809291908181526020018280546119c59061434e565b8015611a125780601f106119e757610100808354040283529160200191611a12565b820191906000526020600020905b8154815290600101906020018083116119f557829003601f168201915b50505050508152602001600182018054611a2b9061434e565b80601f0160208091040260200160405190810160405280929190818152602001828054611a579061434e565b8015611aa45780601f10611a7957610100808354040283529160200191611aa4565b820191906000526020600020905b815481529060010190602001808311611a8757829003601f168201915b50505050508152602001600282018054611abd9061434e565b80601f0160208091040260200160405190810160405280929190818152602001828054611ae99061434e565b8015611b365780601f10611b0b57610100808354040283529160200191611b36565b820191906000526020600020905b815481529060010190602001808311611b1957829003601f168201915b505050505081526020016003820160009054906101000a900461ffff1661ffff1661ffff1681526020016003820160029054906101000a900461ffff1661ffff1661ffff168152602001600482016040518060c00160405290816000820160009054906101000a900461ffff1661ffff1661ffff1681526020016000820160029054906101000a900461ffff1661ffff1661ffff1681526020016000820160049054906101000a900461ffff1661ffff1661ffff168152602001600182016040518060a00160405290816000820160009054906101000a900461ffff1661ffff1661ffff1681526020016000820160029054906101000a900461ffff1661ffff1661ffff1681526020016000820160049054906101000a900461ffff1661ffff1661ffff1681526020016000820160069054906101000a900461ffff1661ffff1661ffff1681526020016000820160089054906101000a900461ffff1661ffff1661ffff16815250508152602001600282016040518060800160405290816000820160009054906101000a900461ffff1661ffff1661ffff1681526020016000820160029054906101000a900461ffff1661ffff1661ffff1681526020016000820160049054906101000a900461ffff1661ffff1661ffff1681526020016000820160069054906101000a900461ffff1661ffff1661ffff168152505081526020016003820160009054906101000a900461ffff1661ffff1661ffff168152505081526020016008820160009054906101000a900461ffff1661ffff1661ffff168152602001600982018054611d8b9061434e565b80601f0160208091040260200160405190810160405280929190818152602001828054611db79061434e565b8015611e045780601f10611dd957610100808354040283529160200191611e04565b820191906000526020600020905b815481529060010190602001808311611de757829003601f168201915b50505050508152602001600a8201805480602002602001604051908101604052809291908181526020016000905b82821015611ede578382906000526020600020018054611e519061434e565b80601f0160208091040260200160405190810160405280929190818152602001828054611e7d9061434e565b8015611eca5780601f10611e9f57610100808354040283529160200191611eca565b820191906000526020600020905b815481529060010190602001808311611ead57829003601f168201915b505050505081526020019060010190611e32565b505050508152505060008160e00151511415611ef957600080fd5b60008160000151511415611f0c57600080fd5b60008160400151511415611f1f57600080fd5b73__$f1f2e15f48fa7f8df27c8f35a0c4c8a415$__634c25f4c260096000868152602001908152602001600020846040518363ffffffff1660e01b8152600401611f6a929190614f10565b60006040518083038186803b158015611f8257600080fd5b505af4158015611f96573d6000803e3d6000fd5b505050506120328373__$f1f2e15f48fa7f8df27c8f35a0c4c8a415$__63b2958b14600960008881526020019081526020016000206040518263ffffffff1660e01b8152600401611fe79190614c20565b600060405180830381865af4158015612004573d6000803e3d6000fd5b505050506040513d6000823e3d601f19601f8201168201806040525081019061202d9190614cb2565b6124b2565b505050565b6120486120426123f1565b8361255d565b612087576040517f08c379a000000000000000000000000000000000000000000000000000000000815260040161207e90614d6d565b60405180910390fd5b61209384848484612c1c565b50505050565b60606120a4826123a6565b60006006600084815260200190815260200160002080546120c49061434e565b80601f01602080910402602001604051908101604052809291908181526020018280546120f09061434e565b801561213d5780601f106121125761010080835404028352916020019161213d565b820191906000526020600020905b81548152906001019060200180831161212057829003601f168201915b50505050509050600061214e612c78565b90506000815114156121645781925050506121a7565b600082511115612199578082604051602001612181929190614f75565b604051602081830303815290604052925050506121a7565b6121a284612c8f565b925050505b919050565b6000600560008473ffffffffffffffffffffffffffffffffffffffff1673ffffffffffffffffffffffffffffffffffffffff16815260200190815260200160002060008373ffffffffffffffffffffffffffffffffffffffff1673ffffffffffffffffffffffffffffffffffffffff16815260200190815260200160002060009054906101000a900460ff16905092915050565b612248612929565b600073ffffffffffffffffffffffffffffffffffffffff168173ffffffffffffffffffffffffffffffffffffffff1614156122b8576040517f08c379a00000000000000000000000000000000000000000000000000000000081526004016122af9061500b565b60405180910390fd5b6122c1816129a7565b50565b60007f80ac58cd000000000000000000000000000000000000000000000000000000007bffffffffffffffffffffffffffffffffffffffffffffffffffffffff1916827bffffffffffffffffffffffffffffffffffffffffffffffffffffffff1916148061238f57507f5b5e139f000000000000000000000000000000000000000000000000000000007bffffffffffffffffffffffffffffffffffffffffffffffffffffffff1916827bffffffffffffffffffffffffffffffffffffffffffffffffffffffff1916145b8061239f575061239e82612cf7565b5b9050919050565b6123af81612d61565b6123ee576040517f08c379a00000000000000000000000000000000000000000000000000000000081526004016123e590614dd9565b60405180910390fd5b50565b600033905090565b816004600083815260200190815260200160002060006101000a81548173ffffffffffffffffffffffffffffffffffffffff021916908373ffffffffffffffffffffffffffffffffffffffff160217905550808273ffffffffffffffffffffffffffffffffffffffff1661246c8361127e565b73ffffffffffffffffffffffffffffffffffffffff167f8c5be1e5ebec7d5bd14f71427d1e84f3dd0314c0f7b2291e5b200ac8c7c3b92560405160405180910390a45050565b6124bb82612d61565b6124fa576040517f08c379a00000000000000000000000000000000000000000000000000000000081526004016124f19061509d565b60405180910390fd5b806006600084815260200190815260200160002090805190602001906125219291906133fd565b507ff8e1a15aba9398e019f0b49df1a4fde98ee17ae345cb5f6b5e2c27f5033e8ce7826040516125519190613f3d565b60405180910390a15050565b6000806125698361127e565b90508073ffffffffffffffffffffffffffffffffffffffff168473ffffffffffffffffffffffffffffffffffffffff1614806125ab57506125aa81856121ac565b5b806125e957508373ffffffffffffffffffffffffffffffffffffffff166125d184610566565b73ffffffffffffffffffffffffffffffffffffffff16145b91505092915050565b8273ffffffffffffffffffffffffffffffffffffffff166126128261127e565b73ffffffffffffffffffffffffffffffffffffffff1614612668576040517f08c379a000000000000000000000000000000000000000000000000000000000815260040161265f9061512f565b60405180910390fd5b600073ffffffffffffffffffffffffffffffffffffffff168273ffffffffffffffffffffffffffffffffffffffff1614156126d8576040517f08c379a00000000000000000000000000000000000000000000000000000000081526004016126cf906151c1565b60405180910390fd5b6126e58383836001612da2565b8273ffffffffffffffffffffffffffffffffffffffff166127058261127e565b73ffffffffffffffffffffffffffffffffffffffff161461275b576040517f08c379a00000000000000000000000000000000000000000000000000000000081526004016127529061512f565b60405180910390fd5b6004600082815260200190815260200160002060006101000a81549073ffffffffffffffffffffffffffffffffffffffff02191690556001600360008573ffffffffffffffffffffffffffffffffffffffff1673ffffffffffffffffffffffffffffffffffffffff168152602001908152602001600020600082825403925050819055506001600360008473ffffffffffffffffffffffffffffffffffffffff1673ffffffffffffffffffffffffffffffffffffffff16815260200190815260200160002060008282540192505081905550816002600083815260200190815260200160002060006101000a81548173ffffffffffffffffffffffffffffffffffffffff021916908373ffffffffffffffffffffffffffffffffffffffff160217905550808273ffffffffffffffffffffffffffffffffffffffff168473ffffffffffffffffffffffffffffffffffffffff167fddf252ad1be2c89b69c2b068fc378daa952ba7f163c4a11628f55a4df523b3ef60405160405180910390a46128e78383836001612da8565b505050565b60006002600083815260200190815260200160002060009054906101000a900473ffffffffffffffffffffffffffffffffffffffff169050919050565b6129316123f1565b73ffffffffffffffffffffffffffffffffffffffff1661294f611880565b73ffffffffffffffffffffffffffffffffffffffff16146129a5576040517f08c379a000000000000000000000000000000000000000000000000000000000815260040161299c9061522d565b60405180910390fd5b565b6000600760009054906101000a900473ffffffffffffffffffffffffffffffffffffffff16905081600760006101000a81548173ffffffffffffffffffffffffffffffffffffffff021916908373ffffffffffffffffffffffffffffffffffffffff1602179055508173ffffffffffffffffffffffffffffffffffffffff168173ffffffffffffffffffffffffffffffffffffffff167f8be0079c531659141344cd1fd0a4f28419497f9722a3daafe3b4186f6b6457e060405160405180910390a35050565b600081600001549050919050565b6001816000016000828254019250508190555050565b612aab828260405180602001604052806000815250612dae565b5050565b8173ffffffffffffffffffffffffffffffffffffffff168373ffffffffffffffffffffffffffffffffffffffff161415612b1e576040517f08c379a0000000000000000000000000000000000000000000000000000000008152600401612b1590615299565b60405180910390fd5b80600560008573ffffffffffffffffffffffffffffffffffffffff1673ffffffffffffffffffffffffffffffffffffffff16815260200190815260200160002060008473ffffffffffffffffffffffffffffffffffffffff1673ffffffffffffffffffffffffffffffffffffffff16815260200190815260200160002060006101000a81548160ff0219169083151502179055508173ffffffffffffffffffffffffffffffffffffffff168373ffffffffffffffffffffffffffffffffffffffff167f17307eab39ab6107e8899845ad3d59bd9653f200f220920489ca2b5937696c3183604051612c0f9190613618565b60405180910390a3505050565b612c278484846125f2565b612c3384848484612e09565b612c72576040517f08c379a0000000000000000000000000000000000000000000000000000000008152600401612c699061532b565b60405180910390fd5b50505050565b606060405180602001604052806000815250905090565b6060612c9a826123a6565b6000612ca4612c78565b90506000815111612cc45760405180602001604052806000815250612cef565b80612cce84612f91565b604051602001612cdf929190614f75565b6040516020818303038152906040525b915050919050565b60007f01ffc9a7000000000000000000000000000000000000000000000000000000007bffffffffffffffffffffffffffffffffffffffffffffffffffffffff1916827bffffffffffffffffffffffffffffffffffffffffffffffffffffffff1916149050919050565b60008073ffffffffffffffffffffffffffffffffffffffff16612d83836128ec565b73ffffffffffffffffffffffffffffffffffffffff1614159050919050565b50505050565b50505050565b612db88383613069565b612dc56000848484612e09565b612e04576040517f08c379a0000000000000000000000000000000000000000000000000000000008152600401612dfb9061532b565b60405180910390fd5b505050565b6000612e2a8473ffffffffffffffffffffffffffffffffffffffff16613287565b15612f84578373ffffffffffffffffffffffffffffffffffffffff1663150b7a02612e536123f1565b8786866040518563ffffffff1660e01b8152600401612e7594939291906153a0565b6020604051808303816000875af1925050508015612eb157506040513d601f19601f82011682018060405250810190612eae9190615401565b60015b612f34573d8060008114612ee1576040519150601f19603f3d011682016040523d82523d6000602084013e612ee6565b606091505b50600081511415612f2c576040517f08c379a0000000000000000000000000000000000000000000000000000000008152600401612f239061532b565b60405180910390fd5b805181602001fd5b63150b7a0260e01b7bffffffffffffffffffffffffffffffffffffffffffffffffffffffff1916817bffffffffffffffffffffffffffffffffffffffffffffffffffffffff191614915050612f89565b600190505b949350505050565b606060006001612fa0846132aa565b01905060008167ffffffffffffffff811115612fbf57612fbe613858565b5b6040519080825280601f01601f191660200182016040528015612ff15781602001600182028036833780820191505090505b509050600082602001820190505b60011561305e578080600190039150507f3031323334353637383961626364656600000000000000000000000000000000600a86061a8153600a85816130485761304761542e565b5b04945060008514156130595761305e565b612fff565b819350505050919050565b600073ffffffffffffffffffffffffffffffffffffffff168273ffffffffffffffffffffffffffffffffffffffff1614156130d9576040517f08c379a00000000000000000000000000000000000000000000000000000000081526004016130d0906154a9565b60405180910390fd5b6130e281612d61565b15613122576040517f08c379a000000000000000000000000000000000000000000000000000000000815260040161311990615515565b60405180910390fd5b613130600083836001612da2565b61313981612d61565b15613179576040517f08c379a000000000000000000000000000000000000000000000000000000000815260040161317090615515565b60405180910390fd5b6001600360008473ffffffffffffffffffffffffffffffffffffffff1673ffffffffffffffffffffffffffffffffffffffff16815260200190815260200160002060008282540192505081905550816002600083815260200190815260200160002060006101000a81548173ffffffffffffffffffffffffffffffffffffffff021916908373ffffffffffffffffffffffffffffffffffffffff160217905550808273ffffffffffffffffffffffffffffffffffffffff16600073ffffffffffffffffffffffffffffffffffffffff167fddf252ad1be2c89b69c2b068fc378daa952ba7f163c4a11628f55a4df523b3ef60405160405180910390a4613283600083836001612da8565b5050565b6000808273ffffffffffffffffffffffffffffffffffffffff163b119050919050565b600080600090507a184f03e93ff9f4daa797ed6e38ed64bf6a1f0100000000000000008310613308577a184f03e93ff9f4daa797ed6e38ed64bf6a1f01000000000000000083816132fe576132fd61542e565b5b0492506040810190505b6d04ee2d6d415b85acef81000000008310613345576d04ee2d6d415b85acef8100000000838161333b5761333a61542e565b5b0492506020810190505b662386f26fc10000831061337457662386f26fc10000838161336a5761336961542e565b5b0492506010810190505b6305f5e100831061339d576305f5e10083816133935761339261542e565b5b0492506008810190505b61271083106133c25761271083816133b8576133b761542e565b5b0492506004810190505b606483106133e557606483816133db576133da61542e565b5b0492506002810190505b600a83106133f4576001810190505b80915050919050565b8280546134099061434e565b90600052602060002090601f01602090048101928261342b5760008555613472565b82601f1061344457805160ff1916838001178555613472565b82800160010185558215613472579182015b82811115613471578251825591602001919060010190613456565b5b50905061347f91906134e3565b5090565b8280548282559060005260206000209081019282156134d2579160200282015b828111156134d15782518290805190602001906134c19291906133fd565b50916020019190600101906134a3565b5b5090506134df9190613500565b5090565b5b808211156134fc5760008160009055506001016134e4565b5090565b5b8082111561352057600081816135179190613524565b50600101613501565b5090565b5080546135309061434e565b6000825580601f106135425750613561565b601f01602090049060005260206000209081019061356091906134e3565b5b50565b6000604051905090565b600080fd5b600080fd5b60007fffffffff0000000000000000000000000000000000000000000000000000000082169050919050565b6135ad81613578565b81146135b857600080fd5b50565b6000813590506135ca816135a4565b92915050565b6000602082840312156135e6576135e561356e565b5b60006135f4848285016135bb565b91505092915050565b60008115159050919050565b613612816135fd565b82525050565b600060208201905061362d6000830184613609565b92915050565b600081519050919050565b600082825260208201905092915050565b60005b8381101561366d578082015181840152602081019050613652565b8381111561367c576000848401525b50505050565b6000601f19601f8301169050919050565b600061369e82613633565b6136a8818561363e565b93506136b881856020860161364f565b6136c181613682565b840191505092915050565b600060208201905081810360008301526136e68184613693565b905092915050565b6000819050919050565b613701816136ee565b811461370c57600080fd5b50565b60008135905061371e816136f8565b92915050565b60006020828403121561373a5761373961356e565b5b60006137488482850161370f565b91505092915050565b600073ffffffffffffffffffffffffffffffffffffffff82169050919050565b600061377c82613751565b9050919050565b61378c81613771565b82525050565b60006020820190506137a76000830184613783565b92915050565b6137b681613771565b81146137c157600080fd5b50565b6000813590506137d3816137ad565b92915050565b600080604083850312156137f0576137ef61356e565b5b60006137fe858286016137c4565b925050602061380f8582860161370f565b9150509250929050565b600061ffff82169050919050565b61383081613819565b811461383b57600080fd5b50565b60008135905061384d81613827565b92915050565b600080fd5b7f4e487b7100000000000000000000000000000000000000000000000000000000600052604160045260246000fd5b61389082613682565b810181811067ffffffffffffffff821117156138af576138ae613858565b5b80604052505050565b60006138c2613564565b90506138ce8282613887565b919050565b600080fd5b600060a082840312156138ee576138ed613853565b5b6138f860a06138b8565b905060006139088482850161383e565b600083015250602061391c8482850161383e565b60208301525060406139308482850161383e565b60408301525060606139448482850161383e565b60608301525060806139588482850161383e565b60808301525092915050565b60006080828403121561397a57613979613853565b5b61398460806138b8565b905060006139948482850161383e565b60008301525060206139a88482850161383e565b60208301525060406139bc8482850161383e565b60408301525060606139d08482850161383e565b60608301525092915050565b60006101a082840312156139f3576139f2613853565b5b6139fd60c06138b8565b90506000613a0d8482850161383e565b6000830152506020613a218482850161383e565b6020830152506040613a358482850161383e565b6040830152506060613a49848285016138d8565b606083015250610100613a5e84828501613964565b608083015250610180613a738482850161383e565b60a08301525092915050565b600080fd5b600067ffffffffffffffff821115613a9f57613a9e613858565b5b602082029050602081019050919050565b600080fd5b600080fd5b600067ffffffffffffffff821115613ad557613ad4613858565b5b613ade82613682565b9050602081019050919050565b82818337600083830152505050565b6000613b0d613b0884613aba565b6138b8565b905082815260208101848484011115613b2957613b28613ab5565b5b613b34848285613aeb565b509392505050565b600082601f830112613b5157613b50613a7f565b5b8135613b61848260208601613afa565b91505092915050565b6000613b7d613b7884613a84565b6138b8565b90508083825260208201905060208402830185811115613ba057613b9f613ab0565b5b835b81811015613be757803567ffffffffffffffff811115613bc557613bc4613a7f565b5b808601613bd28982613b3c565b85526020850194505050602081019050613ba2565b5050509392505050565b600082601f830112613c0657613c05613a7f565b5b8135613c16848260208601613b6a565b91505092915050565b60008060008060006102208688031215613c3c57613c3b61356e565b5b6000613c4a8882890161370f565b9550506020613c5b8882890161383e565b9450506040613c6c888289016139dc565b9350506101e086013567ffffffffffffffff811115613c8e57613c8d613573565b5b613c9a88828901613bf1565b925050610200613cac8882890161383e565b9150509295509295909350565b600080600060608486031215613cd257613cd161356e565b5b6000613ce0868287016137c4565b9350506020613cf1868287016137c4565b9250506040613d028682870161370f565b9150509250925092565b613d1581613819565b82525050565b613d2481613819565b82525050565b60a082016000820151613d406000850182613d1b565b506020820151613d536020850182613d1b565b506040820151613d666040850182613d1b565b506060820151613d796060850182613d1b565b506080820151613d8c6080850182613d1b565b50505050565b608082016000820151613da86000850182613d1b565b506020820151613dbb6020850182613d1b565b506040820151613dce6040850182613d1b565b506060820151613de16060850182613d1b565b50505050565b6101a082016000820151613dfe6000850182613d1b565b506020820151613e116020850182613d1b565b506040820151613e246040850182613d1b565b506060820151613e376060850182613d2a565b506080820151613e4b610100850182613d92565b5060a0820151613e5f610180850182613d1b565b50505050565b6000610280820190508181036000830152613e80818b613693565b90508181036020830152613e94818a613693565b90508181036040830152613ea88189613693565b9050613eb76060830188613d0c565b613ec46080830187613d0c565b613ed160a0830186613de7565b613edf610240830185613d0c565b818103610260830152613ef28184613693565b90509998505050505050505050565b600060208284031215613f1757613f1661356e565b5b6000613f25848285016137c4565b91505092915050565b613f37816136ee565b82525050565b6000602082019050613f526000830184613f2e565b92915050565b60006102a08284031215613f6f57613f6e613853565b5b613f7a6101206138b8565b9050600082013567ffffffffffffffff811115613f9a57613f996138d3565b5b613fa684828501613b3c565b600083015250602082013567ffffffffffffffff811115613fca57613fc96138d3565b5b613fd684828501613b3c565b602083015250604082013567ffffffffffffffff811115613ffa57613ff96138d3565b5b61400684828501613b3c565b604083015250606061401a8482850161383e565b606083015250608061402e8482850161383e565b60808301525060a0614042848285016139dc565b60a0830152506102406140578482850161383e565b60c08301525061026082013567ffffffffffffffff81111561407c5761407b6138d3565b5b61408884828501613b3c565b60e08301525061028082013567ffffffffffffffff8111156140ad576140ac6138d3565b5b6140b984828501613bf1565b6101008301525092915050565b6000602082840312156140dc576140db61356e565b5b600082013567ffffffffffffffff8111156140fa576140f9613573565b5b61410684828501613f58565b91505092915050565b614118816135fd565b811461412357600080fd5b50565b6000813590506141358161410f565b92915050565b600080604083850312156141525761415161356e565b5b6000614160858286016137c4565b925050602061417185828601614126565b9150509250929050565b600080604083850312156141925761419161356e565b5b60006141a08582860161370f565b92505060206141b18582860161383e565b9150509250929050565b600067ffffffffffffffff8211156141d6576141d5613858565b5b6141df82613682565b9050602081019050919050565b60006141ff6141fa846141bb565b6138b8565b90508281526020810184848401111561421b5761421a613ab5565b5b614226848285613aeb565b509392505050565b600082601f83011261424357614242613a7f565b5b81356142538482602086016141ec565b91505092915050565b600080600080608085870312156142765761427561356e565b5b6000614284878288016137c4565b9450506020614295878288016137c4565b93505060406142a68782880161370f565b925050606085013567ffffffffffffffff8111156142c7576142c6613573565b5b6142d38782880161422e565b91505092959194509250565b600080604083850312156142f6576142f561356e565b5b6000614304858286016137c4565b9250506020614315858286016137c4565b9150509250929050565b7f4e487b7100000000000000000000000000000000000000000000000000000000600052602260045260246000fd5b6000600282049050600182168061436657607f821691505b6020821081141561437a5761437961431f565b5b50919050565b7f4552433732313a20617070726f76616c20746f2063757272656e74206f776e6560008201527f7200000000000000000000000000000000000000000000000000000000000000602082015250565b60006143dc60218361363e565b91506143e782614380565b604082019050919050565b6000602082019050818103600083015261440b816143cf565b9050919050565b7f4552433732313a20617070726f76652063616c6c6572206973206e6f7420746f60008201527f6b656e206f776e6572206f7220617070726f76656420666f7220616c6c000000602082015250565b600061446e603d8361363e565b915061447982614412565b604082019050919050565b6000602082019050818103600083015261449d81614461565b9050919050565b8082525050565b6144b481613819565b82525050565b6144c381613819565b82525050565b60a0820160008201516144df60008501826144ba565b5060208201516144f260208501826144ba565b50604082015161450560408501826144ba565b50606082015161451860608501826144ba565b50608082015161452b60808501826144ba565b50505050565b60808201600082015161454760008501826144ba565b50602082015161455a60208501826144ba565b50604082015161456d60408501826144ba565b50606082015161458060608501826144ba565b50505050565b6101a08201600082015161459d60008501826144ba565b5060208201516145b060208501826144ba565b5060408201516145c360408501826144ba565b5060608201516145d660608501826144c9565b5060808201516145ea610100850182614531565b5060a08201516145fe6101808501826144ba565b50505050565b600081519050919050565b600082825260208201905092915050565b6000819050602082019050919050565b600082825260208201905092915050565b600061464c82613633565b6146568185614630565b935061466681856020860161364f565b61466f81613682565b840191505092915050565b60006146868383614641565b905092915050565b6000602082019050919050565b60006146a682614604565b6146b0818561460f565b9350836020820285016146c285614620565b8060005b858110156146fe57848403895281516146df858261467a565b94506146ea8361468e565b925060208a019950506001810190506146c6565b50829750879550505050505092915050565b60006102208201905061472660008301886144a4565b61473360208301876144ab565b6147406040830186614586565b8181036101e0830152614753818561469b565b90506147636102008301846144ab565b9695505050505050565b60008190508160005260206000209050919050565b6000815461478f8161434e565b6147998186614630565b945060018216600081146147b457600181146147c6576147f9565b60ff19831686526020860193506147f9565b6147cf8561476d565b60005b838110156147f1578154818901526001820191506020810190506147d2565b808801955050505b50505092915050565b60008160001c9050919050565b600061ffff82169050919050565b600061483061482b83614802565b61480f565b9050919050565b60008160101c9050919050565b600061485761485283614837565b61480f565b9050919050565b60008160201c9050919050565b600061487e6148798361485e565b61480f565b9050919050565b60008160301c9050919050565b60006148a56148a083614885565b61480f565b9050919050565b60008160401c9050919050565b60006148cc6148c7836148ac565b61480f565b9050919050565b60a0820160008083015490506148e88161481d565b6148f560008601826144ba565b506148ff81614844565b61490c60208601826144ba565b506149168161486b565b61492360408601826144ba565b5061492d81614892565b61493a60608601826144ba565b50614944816148b9565b61495160808601826144ba565b5050505050565b60808201600080830154905061496d8161481d565b61497a60008601826144ba565b5061498481614844565b61499160208601826144ba565b5061499b8161486b565b6149a860408601826144ba565b506149b281614892565b6149bf60608601826144ba565b5050505050565b6101a0820160008083015490506149dc8161481d565b6149e960008601826144ba565b506149f381614844565b614a0060208601826144ba565b50614a0a8161486b565b614a1760408601826144ba565b5060018301614a2960608601826148d3565b5060028301614a3c610100860182614958565b5060038301549050614a4d8161481d565b614a5b6101808601826144ba565b5050505050565b600081549050919050565b600082825260208201905092915050565b60008190508160005260206000209050919050565b6000614a9f8383614782565b905092915050565b6000600182019050919050565b6000614abf82614a62565b614ac98185614a6d565b935083602082028501614adb85614a7e565b8060005b85811015614b1657848403895281614af78582614a93565b9450614b0283614aa7565b925060208a01995050600181019050614adf565b50829750879550505050505092915050565b60006102a0830160008084018583036000870152614b468382614782565b925050600184018583036020870152614b5f8382614782565b925050600284018583036040870152614b788382614782565b92505060038401549050614b8b8161481d565b614b9860608701826144ba565b50614ba281614844565b614baf60808701826144ba565b5060048401614bc160a08701826149c6565b5060088401549050614bd28161481d565b614be06102408701826144ba565b5060098401858303610260870152614bf88382614782565b925050600a8401858303610280870152614c128382614ab4565b925050819250505092915050565b60006020820190508181036000830152614c3a8184614b28565b905092915050565b6000614c55614c5084613aba565b6138b8565b905082815260208101848484011115614c7157614c70613ab5565b5b614c7c84828561364f565b509392505050565b600082601f830112614c9957614c98613a7f565b5b8151614ca9848260208601614c42565b91505092915050565b600060208284031215614cc857614cc761356e565b5b600082015167ffffffffffffffff811115614ce657614ce5613573565b5b614cf284828501614c84565b91505092915050565b7f4552433732313a2063616c6c6572206973206e6f7420746f6b656e206f776e6560008201527f72206f7220617070726f76656400000000000000000000000000000000000000602082015250565b6000614d57602d8361363e565b9150614d6282614cfb565b604082019050919050565b60006020820190508181036000830152614d8681614d4a565b9050919050565b7f4552433732313a20696e76616c696420746f6b656e2049440000000000000000600082015250565b6000614dc360188361363e565b9150614dce82614d8d565b602082019050919050565b60006020820190508181036000830152614df281614db6565b9050919050565b7f4552433732313a2061646472657373207a65726f206973206e6f74206120766160008201527f6c6964206f776e65720000000000000000000000000000000000000000000000602082015250565b6000614e5560298361363e565b9150614e6082614df9565b604082019050919050565b60006020820190508181036000830152614e8481614e48565b9050919050565b7f4e487b7100000000000000000000000000000000000000000000000000000000600052601160045260246000fd5b6000614ec5826136ee565b9150614ed0836136ee565b9250827fffffffffffffffffffffffffffffffffffffffffffffffffffffffffffffffff03821115614f0557614f04614e8b565b5b828201905092915050565b6000604082019050614f2560008301856144a4565b614f3260208301846144ab565b9392505050565b600081905092915050565b6000614f4f82613633565b614f598185614f39565b9350614f6981856020860161364f565b80840191505092915050565b6000614f818285614f44565b9150614f8d8284614f44565b91508190509392505050565b7f4f776e61626c653a206e6577206f776e657220697320746865207a65726f206160008201527f6464726573730000000000000000000000000000000000000000000000000000602082015250565b6000614ff560268361363e565b915061500082614f99565b604082019050919050565b6000602082019050818103600083015261502481614fe8565b9050919050565b7f45524337323155524953746f726167653a2055524920736574206f66206e6f6e60008201527f6578697374656e7420746f6b656e000000000000000000000000000000000000602082015250565b6000615087602e8361363e565b91506150928261502b565b604082019050919050565b600060208201905081810360008301526150b68161507a565b9050919050565b7f4552433732313a207472616e736665722066726f6d20696e636f72726563742060008201527f6f776e6572000000000000000000000000000000000000000000000000000000602082015250565b600061511960258361363e565b9150615124826150bd565b604082019050919050565b600060208201905081810360008301526151488161510c565b9050919050565b7f4552433732313a207472616e7366657220746f20746865207a65726f2061646460008201527f7265737300000000000000000000000000000000000000000000000000000000602082015250565b60006151ab60248361363e565b91506151b68261514f565b604082019050919050565b600060208201905081810360008301526151da8161519e565b9050919050565b7f4f776e61626c653a2063616c6c6572206973206e6f7420746865206f776e6572600082015250565b600061521760208361363e565b9150615222826151e1565b602082019050919050565b600060208201905081810360008301526152468161520a565b9050919050565b7f4552433732313a20617070726f766520746f2063616c6c657200000000000000600082015250565b600061528360198361363e565b915061528e8261524d565b602082019050919050565b600060208201905081810360008301526152b281615276565b9050919050565b7f4552433732313a207472616e7366657220746f206e6f6e20455243373231526560008201527f63656976657220696d706c656d656e7465720000000000000000000000000000602082015250565b600061531560328361363e565b9150615320826152b9565b604082019050919050565b6000602082019050818103600083015261534481615308565b9050919050565b600081519050919050565b600082825260208201905092915050565b60006153728261534b565b61537c8185615356565b935061538c81856020860161364f565b61539581613682565b840191505092915050565b60006080820190506153b56000830187613783565b6153c26020830186613783565b6153cf6040830185613f2e565b81810360608301526153e18184615367565b905095945050505050565b6000815190506153fb816135a4565b92915050565b6000602082840312156154175761541661356e565b5b6000615425848285016153ec565b91505092915050565b7f4e487b7100000000000000000000000000000000000000000000000000000000600052601260045260246000fd5b7f4552433732313a206d696e7420746f20746865207a65726f2061646472657373600082015250565b600061549360208361363e565b915061549e8261545d565b602082019050919050565b600060208201905081810360008301526154c281615486565b9050919050565b7f4552433732313a20746f6b656e20616c7265616479206d696e74656400000000600082015250565b60006154ff601c8361363e565b915061550a826154c9565b602082019050919050565b6000602082019050818103600083015261552e816154f2565b905091905056fea264697066735822122025385ac4d62ea8f40570b3b7edebae05907c8cbe42b262349f87589e3b80e5a064736f6c634300080c0033",
  "linkReferences": {
    "contracts/GearFactory.sol": {
      "GearFactory": [
        {
          "length": 20,
          "start": 3918
        },
        {
          "length": 20,
          "start": 4051
        },
        {
          "length": 20,
          "start": 6733
        },
        {
          "length": 20,
          "start": 8692
        },
        {
          "length": 20,
          "start": 8819
        }
      ]
    }
  },
  "deployedLinkReferences": {
    "contracts/GearFactory.sol": {
      "GearFactory": [
        {
          "length": 20,
          "start": 3195
        },
        {
          "length": 20,
          "start": 3328
        },
        {
          "length": 20,
          "start": 6010
        },
        {
          "length": 20,
          "start": 7969
        },
        {
          "length": 20,
          "start": 8096
        }
      ]
    }
  }
}